{
  "contracts/MyStorage.sol": {
    "MyStorage": {
      "abi": [
        {
          "inputs": [],
          "name": "retrieve",
          "outputs": [
            {
              "internalType": "uint256",
              "name": "",
              "type": "uint256"
            }
          ],
          "stateMutability": "view",
          "type": "function"
        },
        {
          "inputs": [
            {
              "internalType": "uint256",
              "name": "num",
              "type": "uint256"
            }
          ],
          "name": "store",
          "outputs": [],
          "stateMutability": "nonpayable",
          "type": "function"
        },
        {
          "inputs": [],
          "name": "viewAddress",
          "outputs": [
            {
              "internalType": "address",
              "name": "",
              "type": "address"
            }
          ],
          "stateMutability": "view",
          "type": "function"
        }
      ],
      "evm": {
        "bytecode": {
          "linkReferences": {},
          "object": "608060405234801561001057600080fd5b5061010b806100206000396000f3fe6080604052348015600f57600080fd5b5060043610603c5760003560e01c806318b04c8a1460415780632e64cec11460735780636057361d14608f575b600080fd5b604760ba565b604051808273ffffffffffffffffffffffffffffffffffffffff16815260200191505060405180910390f35b607960c2565b6040518082815260200191505060405180910390f35b60b86004803603602081101560a357600080fd5b810190808035906020019092919050505060cb565b005b600030905090565b60008054905090565b806000819055505056fea2646970667358221220b0d257abf5da112bcb46b4325a59fb8001a8c1d4cf11d4c32b97be1bdb6efe5964736f6c63430007030033",
          "opcodes": "PUSH1 0x80 PUSH1 0x40 MSTORE CALLVALUE DUP1 ISZERO PUSH2 0x10 JUMPI PUSH1 0x0 DUP1 REVERT JUMPDEST POP PUSH2 0x10B DUP1 PUSH2 0x20 PUSH1 0x0 CODECOPY PUSH1 0x0 RETURN INVALID PUSH1 0x80 PUSH1 0x40 MSTORE CALLVALUE DUP1 ISZERO PUSH1 0xF JUMPI PUSH1 0x0 DUP1 REVERT JUMPDEST POP PUSH1 0x4 CALLDATASIZE LT PUSH1 0x3C JUMPI PUSH1 0x0 CALLDATALOAD PUSH1 0xE0 SHR DUP1 PUSH4 0x18B04C8A EQ PUSH1 0x41 JUMPI DUP1 PUSH4 0x2E64CEC1 EQ PUSH1 0x73 JUMPI DUP1 PUSH4 0x6057361D EQ PUSH1 0x8F JUMPI JUMPDEST PUSH1 0x0 DUP1 REVERT JUMPDEST PUSH1 0x47 PUSH1 0xBA JUMP JUMPDEST PUSH1 0x40 MLOAD DUP1 DUP3 PUSH20 0xFFFFFFFFFFFFFFFFFFFFFFFFFFFFFFFFFFFFFFFF AND DUP2 MSTORE PUSH1 0x20 ADD SWAP2 POP POP PUSH1 0x40 MLOAD DUP1 SWAP2 SUB SWAP1 RETURN JUMPDEST PUSH1 0x79 PUSH1 0xC2 JUMP JUMPDEST PUSH1 0x40 MLOAD DUP1 DUP3 DUP2 MSTORE PUSH1 0x20 ADD SWAP2 POP POP PUSH1 0x40 MLOAD DUP1 SWAP2 SUB SWAP1 RETURN JUMPDEST PUSH1 0xB8 PUSH1 0x4 DUP1 CALLDATASIZE SUB PUSH1 0x20 DUP2 LT ISZERO PUSH1 0xA3 JUMPI PUSH1 0x0 DUP1 REVERT JUMPDEST DUP2 ADD SWAP1 DUP1 DUP1 CALLDATALOAD SWAP1 PUSH1 0x20 ADD SWAP1 SWAP3 SWAP2 SWAP1 POP POP POP PUSH1 0xCB JUMP JUMPDEST STOP JUMPDEST PUSH1 0x0 ADDRESS SWAP1 POP SWAP1 JUMP JUMPDEST PUSH1 0x0 DUP1 SLOAD SWAP1 POP SWAP1 JUMP JUMPDEST DUP1 PUSH1 0x0 DUP2 SWAP1 SSTORE POP POP JUMP INVALID LOG2 PUSH5 0x6970667358 0x22 SLT KECCAK256 0xB0 0xD2 JUMPI 0xAB CREATE2 0xDA GT 0x2B 0xCB CHAINID 0xB4 ORIGIN GAS MSIZE 0xFB DUP1 ADD 0xA8 0xC1 0xD4 0xCF GT 0xD4 0xC3 0x2B SWAP8 0xBE SHL 0xDB PUSH15 0xFE5964736F6C634300070300330000 "
        },
        "methodIdentifiers": {
          "retrieve()": "2e64cec1",
          "store(uint256)": "6057361d",
          "viewAddress()": "18b04c8a"
        }
      }
    }
  }
}