{
  "_format": "hh-sol-artifact-1",
  "contractName": "MyStorage",
  "sourceName": "contracts/MyStorage.sol",
  "abi": [
    {
      "inputs": [],
      "name": "retrieve",
      "outputs": [
        {
          "internalType": "uint256",
          "name": "",
          "type": "uint256"
        }
      ],
      "stateMutability": "view",
      "type": "function"
    },
    {
      "inputs": [
        {
          "internalType": "uint256",
          "name": "num",
          "type": "uint256"
        }
      ],
      "name": "store",
      "outputs": [],
      "stateMutability": "nonpayable",
      "type": "function"
    },
    {
      "inputs": [],
      "name": "viewAddress",
      "outputs": [
        {
          "internalType": "address",
          "name": "",
          "type": "address"
        }
      ],
      "stateMutability": "view",
      "type": "function"
    }
  ],
  "bytecode": "0x608060405234801561001057600080fd5b506101d4806100206000396000f3fe608060405234801561001057600080fd5b50600436106100415760003560e01c806318b04c8a146100465780632e64cec1146100645780636057361d14610082575b600080fd5b61004e61009e565b60405161005b9190610115565b60405180910390f35b61006c6100a6565b6040516100799190610130565b60405180910390f35b61009c600480360381019061009791906100ce565b6100af565b005b600030905090565b60008054905090565b8060008190555050565b6000813590506100c881610187565b92915050565b6000602082840312156100e057600080fd5b60006100ee848285016100b9565b91505092915050565b6101008161014b565b82525050565b61010f8161017d565b82525050565b600060208201905061012a60008301846100f7565b92915050565b60006020820190506101456000830184610106565b92915050565b60006101568261015d565b9050919050565b600073ffffffffffffffffffffffffffffffffffffffff82169050919050565b6000819050919050565b6101908161017d565b811461019b57600080fd5b5056fea26469706673582212208e45c7b29e1d6607d0a3babc01771d73677d097ce2807ba38b15f4b457caa31c64736f6c63430008000033",
  "linkReferences": {},
  "deployedLinkReferences": {}
}