{
  "_format": "hh-sol-artifact-1",
  "contractName": "ContractFactory",
  "sourceName": "contracts/StorageFactory.sol",
  "abi": [
    {
      "inputs": [],
      "name": "addStorage",
      "outputs": [],
      "stateMutability": "nonpayable",
      "type": "function"
    },
    {
      "inputs": [
        {
          "internalType": "uint256",
          "name": "_index",
          "type": "uint256"
        },
        {
          "internalType": "uint256",
          "name": "_number",
          "type": "uint256"
        }
      ],
      "name": "sfStore",
      "outputs": [],
      "stateMutability": "nonpayable",
      "type": "function"
    },
    {
      "inputs": [
        {
          "internalType": "address",
          "name": "add",
          "type": "address"
        }
      ],
      "name": "sfStoreExternal",
      "outputs": [],
      "stateMutability": "nonpayable",
      "type": "function"
    },
    {
      "inputs": [
        {
          "internalType": "uint256",
          "name": "_index",
          "type": "uint256"
        }
      ],
      "name": "sfView",
      "outputs": [
        {
          "internalType": "uint256",
          "name": "",
          "type": "uint256"
        }
      ],
      "stateMutability": "view",
      "type": "function"
    },
    {
      "inputs": [
        {
          "internalType": "uint256",
          "name": "_index",
          "type": "uint256"
        }
      ],
      "name": "sfViewAddress",
      "outputs": [
        {
          "internalType": "address",
          "name": "",
          "type": "address"
        }
      ],
      "stateMutability": "view",
      "type": "function"
    },
    {
      "inputs": [
        {
          "internalType": "uint256",
          "name": "",
          "type": "uint256"
        }
      ],
      "name": "storageArray",
      "outputs": [
        {
          "internalType": "contract MyStorage",
          "name": "",
          "type": "address"
        }
      ],
      "stateMutability": "view",
      "type": "function"
    }
  ],
  "bytecode": "0x608060405234801561001057600080fd5b506108e5806100206000396000f3fe608060405234801561001057600080fd5b50600436106100625760003560e01c80630a6c0ac3146100675780630e031ab1146100975780631563700f146100c757806388bb89d6146100e3578063bbedf61614610113578063e4c8531a1461012f575b600080fd5b610081600480360381019061007c9190610521565b610139565b60405161008e91906105dc565b60405180910390f35b6100b160048036038101906100ac9190610521565b6101a6565b6040516100be91906105f7565b60405180910390f35b6100e160048036038101906100dc9190610573565b6101e5565b005b6100fd60048036038101906100f89190610521565b6102bd565b60405161010a9190610612565b60405180910390f35b61012d600480360381019061012891906104f8565b6103ad565b005b610137610419565b005b6000808281548110610174577f4e487b7100000000000000000000000000000000000000000000000000000000600052603260045260246000fd5b9060005260206000200160009054906101000a900473ffffffffffffffffffffffffffffffffffffffff169050919050565b600081815481106101b657600080fd5b906000526020600020016000915054906101000a900473ffffffffffffffffffffffffffffffffffffffff1681565b6000808381548110610220577f4e487b7100000000000000000000000000000000000000000000000000000000600052603260045260246000fd5b9060005260206000200160009054906101000a900473ffffffffffffffffffffffffffffffffffffffff1690508073ffffffffffffffffffffffffffffffffffffffff16636057361d836040518263ffffffff1660e01b81526004016102869190610612565b600060405180830381600087803b1580156102a057600080fd5b505af11580156102b4573d6000803e3d6000fd5b50505050505050565b600080600083815481106102fa577f4e487b7100000000000000000000000000000000000000000000000000000000600052603260045260246000fd5b9060005260206000200160009054906101000a900473ffffffffffffffffffffffffffffffffffffffff1690508073ffffffffffffffffffffffffffffffffffffffff16632e64cec16040518163ffffffff1660e01b815260040160206040518083038186803b15801561036d57600080fd5b505afa158015610381573d6000803e3d6000fd5b505050506040513d601f19601f820116820180604052508101906103a5919061054a565b915050919050565b60008190506000819080600181540180825580915050600190039060005260206000200160009091909190916101000a81548173ffffffffffffffffffffffffffffffffffffffff021916908373ffffffffffffffffffffffffffffffffffffffff1602179055505050565b6000604051610427906104ac565b604051809103906000f080158015610443573d6000803e3d6000fd5b5090506000819080600181540180825580915050600190039060005260206000200160009091909190916101000a81548173ffffffffffffffffffffffffffffffffffffffff021916908373ffffffffffffffffffffffffffffffffffffffff16021790555050565b6101f4806106bc83390190565b6000813590506104c88161068d565b92915050565b6000813590506104dd816106a4565b92915050565b6000815190506104f2816106a4565b92915050565b60006020828403121561050a57600080fd5b6000610518848285016104b9565b91505092915050565b60006020828403121561053357600080fd5b6000610541848285016104ce565b91505092915050565b60006020828403121561055c57600080fd5b600061056a848285016104e3565b91505092915050565b6000806040838503121561058657600080fd5b6000610594858286016104ce565b92505060206105a5858286016104ce565b9150509250929050565b6105b88161062d565b82525050565b6105c781610669565b82525050565b6105d68161065f565b82525050565b60006020820190506105f160008301846105af565b92915050565b600060208201905061060c60008301846105be565b92915050565b600060208201905061062760008301846105cd565b92915050565b60006106388261063f565b9050919050565b600073ffffffffffffffffffffffffffffffffffffffff82169050919050565b6000819050919050565b60006106748261067b565b9050919050565b60006106868261063f565b9050919050565b6106968161062d565b81146106a157600080fd5b50565b6106ad8161065f565b81146106b857600080fd5b5056fe608060405234801561001057600080fd5b506101d4806100206000396000f3fe608060405234801561001057600080fd5b50600436106100415760003560e01c806318b04c8a146100465780632e64cec1146100645780636057361d14610082575b600080fd5b61004e61009e565b60405161005b9190610115565b60405180910390f35b61006c6100a6565b6040516100799190610130565b60405180910390f35b61009c600480360381019061009791906100ce565b6100af565b005b600030905090565b60008054905090565b8060008190555050565b6000813590506100c881610187565b92915050565b6000602082840312156100e057600080fd5b60006100ee848285016100b9565b91505092915050565b6101008161014b565b82525050565b61010f8161017d565b82525050565b600060208201905061012a60008301846100f7565b92915050565b60006020820190506101456000830184610106565b92915050565b60006101568261015d565b9050919050565b600073ffffffffffffffffffffffffffffffffffffffff82169050919050565b6000819050919050565b6101908161017d565b811461019b57600080fd5b5056fea26469706673582212208e45c7b29e1d6607d0a3babc01771d73677d097ce2807ba38b15f4b457caa31c64736f6c63430008000033a26469706673582212208d514a3328b3a3b1805550bf20ccc3bc5f700fa3e6f97bb0ffd9354db0e347b464736f6c63430008000033",
  "linkReferences": {},
  "deployedLinkReferences": {}
}