{
  "_format": "hh-sol-artifact-1",
  "contractName": "ContractFactory",
  "sourceName": "contracts/StorageFactory.sol",
  "abi": [
    {
      "inputs": [],
      "name": "addStorage",
      "outputs": [],
      "stateMutability": "nonpayable",
      "type": "function"
    },
    {
      "inputs": [
        {
          "internalType": "uint256",
          "name": "_index",
          "type": "uint256"
        },
        {
          "internalType": "uint256",
          "name": "_number",
          "type": "uint256"
        }
      ],
      "name": "sfStore",
      "outputs": [],
      "stateMutability": "nonpayable",
      "type": "function"
    },
    {
      "inputs": [
        {
          "internalType": "address",
          "name": "add",
          "type": "address"
        }
      ],
      "name": "sfStoreExternal",
      "outputs": [],
      "stateMutability": "nonpayable",
      "type": "function"
    },
    {
      "inputs": [
        {
          "internalType": "uint256",
          "name": "_index",
          "type": "uint256"
        }
      ],
      "name": "sfView",
      "outputs": [
        {
          "internalType": "uint256",
          "name": "",
          "type": "uint256"
        }
      ],
      "stateMutability": "view",
      "type": "function"
    },
    {
      "inputs": [
        {
          "internalType": "uint256",
          "name": "_index",
          "type": "uint256"
        }
      ],
      "name": "sfViewAddress",
      "outputs": [
        {
          "internalType": "address",
          "name": "",
          "type": "address"
        }
      ],
      "stateMutability": "view",
      "type": "function"
    },
    {
      "inputs": [
        {
          "internalType": "uint256",
          "name": "",
          "type": "uint256"
        }
      ],
      "name": "storageArray",
      "outputs": [
        {
          "internalType": "contract MyStorage",
          "name": "",
          "type": "address"
        }
      ],
      "stateMutability": "view",
      "type": "function"
    }
  ],
  "bytecode": "0x608060405234801561001057600080fd5b50610639806100206000396000f3fe608060405234801561001057600080fd5b50600436106100625760003560e01c80630a6c0ac3146100675780630e031ab1146100bf5780631563700f1461011757806388bb89d61461014f578063bbedf61614610191578063e4c8531a146101d5575b600080fd5b6100936004803603602081101561007d57600080fd5b81019080803590602001909291905050506101df565b604051808273ffffffffffffffffffffffffffffffffffffffff16815260200191505060405180910390f35b6100eb600480360360208110156100d557600080fd5b810190808035906020019092919050505061021f565b604051808273ffffffffffffffffffffffffffffffffffffffff16815260200191505060405180910390f35b61014d6004803603604081101561012d57600080fd5b81019080803590602001909291908035906020019092919050505061025b565b005b61017b6004803603602081101561016557600080fd5b8101908080359060200190929190505050610306565b6040518082815260200191505060405180910390f35b6101d3600480360360208110156101a757600080fd5b81019080803573ffffffffffffffffffffffffffffffffffffffff1690602001909291905050506103cc565b005b6101dd610438565b005b60008082815481106101ed57fe5b9060005260206000200160009054906101000a900473ffffffffffffffffffffffffffffffffffffffff169050919050565b6000818154811061022c57fe5b906000526020600020016000915054906101000a900473ffffffffffffffffffffffffffffffffffffffff1681565b600080838154811061026957fe5b9060005260206000200160009054906101000a900473ffffffffffffffffffffffffffffffffffffffff1690508073ffffffffffffffffffffffffffffffffffffffff16636057361d836040518263ffffffff1660e01b815260040180828152602001915050600060405180830381600087803b1580156102e957600080fd5b505af11580156102fd573d6000803e3d6000fd5b50505050505050565b6000806000838154811061031657fe5b9060005260206000200160009054906101000a900473ffffffffffffffffffffffffffffffffffffffff1690508073ffffffffffffffffffffffffffffffffffffffff16632e64cec16040518163ffffffff1660e01b815260040160206040518083038186803b15801561038957600080fd5b505afa15801561039d573d6000803e3d6000fd5b505050506040513d60208110156103b357600080fd5b8101908080519060200190929190505050915050919050565b60008190506000819080600181540180825580915050600190039060005260206000200160009091909190916101000a81548173ffffffffffffffffffffffffffffffffffffffff021916908373ffffffffffffffffffffffffffffffffffffffff1602179055505050565b6000604051610446906104cb565b604051809103906000f080158015610462573d6000803e3d6000fd5b5090506000819080600181540180825580915050600190039060005260206000200160009091909190916101000a81548173ffffffffffffffffffffffffffffffffffffffff021916908373ffffffffffffffffffffffffffffffffffffffff16021790555050565b61012b806104d98339019056fe608060405234801561001057600080fd5b5061010b806100206000396000f3fe6080604052348015600f57600080fd5b5060043610603c5760003560e01c806318b04c8a1460415780632e64cec11460735780636057361d14608f575b600080fd5b604760ba565b604051808273ffffffffffffffffffffffffffffffffffffffff16815260200191505060405180910390f35b607960c2565b6040518082815260200191505060405180910390f35b60b86004803603602081101560a357600080fd5b810190808035906020019092919050505060cb565b005b600030905090565b60008054905090565b806000819055505056fea2646970667358221220b0d257abf5da112bcb46b4325a59fb8001a8c1d4cf11d4c32b97be1bdb6efe5964736f6c63430007030033a2646970667358221220606546157a15c1cf93da0a0de19419cf158ecbd9629c0fb38a0e1db0142c5ffb64736f6c63430007030033",
  "linkReferences": {},
  "deployedLinkReferences": {}
}